{
  "contractName": "TrackerProduct",
  "abi": [
    {
      "constant": true,
      "inputs": [],
      "name": "getProduct",
      "outputs": [
        {
          "name": "",
          "type": "string"
        },
        {
          "name": "",
          "type": "string"
        },
        {
          "name": "",
          "type": "string"
        },
        {
          "name": "",
          "type": "string"
        }
      ],
      "payable": false,
      "stateMutability": "view",
      "type": "function"
    },
    {
      "constant": false,
      "inputs": [
        {
          "name": "_nameProduct",
          "type": "string"
        },
        {
          "name": "_productionDate",
          "type": "string"
        },
        {
          "name": "_manufacturer",
          "type": "string"
        },
        {
          "name": "_trackerProgress",
          "type": "string"
        }
      ],
      "name": "registerProduct",
      "outputs": [],
      "payable": false,
      "stateMutability": "nonpayable",
      "type": "function"
    }
  ],
  "bytecode": "0x6060604052341561000f57600080fd5b6109cd8061001e6000396000f30060606040526004361061004c576000357c0100000000000000000000000000000000000000000000000000000000900463ffffffff1680634ba20050146100515780638799d6fc14610223575b600080fd5b341561005c57600080fd5b610064610349565b6040518080602001806020018060200180602001858103855289818151815260200191508051906020019080838360005b838110156100b0578082015181840152602081019050610095565b50505050905090810190601f1680156100dd5780820380516001836020036101000a031916815260200191505b50858103845288818151815260200191508051906020019080838360005b838110156101165780820151818401526020810190506100fb565b50505050905090810190601f1680156101435780820380516001836020036101000a031916815260200191505b50858103835287818151815260200191508051906020019080838360005b8381101561017c578082015181840152602081019050610161565b50505050905090810190601f1680156101a95780820380516001836020036101000a031916815260200191505b50858103825286818151815260200191508051906020019080838360005b838110156101e25780820151818401526020810190506101c7565b50505050905090810190601f16801561020f5780820380516001836020036101000a031916815260200191505b509850505050505050505060405180910390f35b341561022e57600080fd5b610347600480803590602001908201803590602001908080601f0160208091040260200160405190810160405280939291908181526020018383808284378201915050505050509190803590602001908201803590602001908080601f0160208091040260200160405190810160405280939291908181526020018383808284378201915050505050509190803590602001908201803590602001908080601f0160208091040260200160405190810160405280939291908181526020018383808284378201915050505050509190803590602001908201803590602001908080601f016020809104026020016040519081016040528093929190818152602001838380828437820191505050505050919050506105ef565b005b6103516108d4565b6103596108d4565b6103616108d4565b6103696108d4565b6000600160026003838054600181600116156101000203166002900480601f0160208091040260200160405190810160405280929190818152602001828054600181600116156101000203166002900480156104065780601f106103db57610100808354040283529160200191610406565b820191906000526020600020905b8154815290600101906020018083116103e957829003601f168201915b50505050509350828054600181600116156101000203166002900480601f0160208091040260200160405190810160405280929190818152602001828054600181600116156101000203166002900480156104a25780601f10610477576101008083540402835291602001916104a2565b820191906000526020600020905b81548152906001019060200180831161048557829003601f168201915b50505050509250818054600181600116156101000203166002900480601f01602080910402602001604051908101604052809291908181526020018280546001816001161561010002031660029004801561053e5780601f106105135761010080835404028352916020019161053e565b820191906000526020600020905b81548152906001019060200180831161052157829003601f168201915b50505050509150808054600181600116156101000203166002900480601f0160208091040260200160405190810160405280929190818152602001828054600181600116156101000203166002900480156105da5780601f106105af576101008083540402835291602001916105da565b820191906000526020600020905b8154815290600101906020018083116105bd57829003601f168201915b50505050509050935093509350935090919293565b83600090805190602001906106059291906108e8565b50826001908051906020019061061c9291906108e8565b5081600290805190602001906106339291906108e8565b506106d860038054600181600116156101000203166002900480601f0160208091040260200160405190810160405280929190818152602001828054600181600116156101000203166002900480156106cd5780601f106106a2576101008083540402835291602001916106cd565b820191906000526020600020905b8154815290600101906020018083116106b057829003601f168201915b5050505050826106f4565b600390805190602001906106ed9291906108e8565b5050505050565b6106fc6108d4565b610704610968565b61070c610968565b6107146108d4565b61071c610968565b60008088955087945084518651016040518059106107375750595b9080825280601f01601f1916602001820160405250935083925060009150600090505b855181101561080d57858181518110151561077157fe5b9060200101517f010000000000000000000000000000000000000000000000000000000000000090047f01000000000000000000000000000000000000000000000000000000000000000283838060010194508151811015156107d057fe5b9060200101907effffffffffffffffffffffffffffffffffffffffffffffffffffffffffffff1916908160001a905350808060010191505061075a565b600090505b84518110156108c557848181518110151561082957fe5b9060200101517f010000000000000000000000000000000000000000000000000000000000000090047f010000000000000000000000000000000000000000000000000000000000000002838380600101945081518110151561088857fe5b9060200101907effffffffffffffffffffffffffffffffffffffffffffffffffffffffffffff1916908160001a9053508080600101915050610812565b82965050505050505092915050565b602060405190810160405280600081525090565b828054600181600116156101000203166002900490600052602060002090601f016020900481019282601f1061092957805160ff1916838001178555610957565b82800160010185558215610957579182015b8281111561095657825182559160200191906001019061093b565b5b509050610964919061097c565b5090565b602060405190810160405280600081525090565b61099e91905b8082111561099a576000816000905550600101610982565b5090565b905600a165627a7a723058206939af4433ef2f173d68345f3097cedceff8a780aec8b598c27c96f9aa795d400029",
  "source": "pragma solidity ^0.4.18;\r\n\r\ncontract TrackerProduct {\r\n\r\n  string nameProduct;\r\n  string productionDate;\r\n  string manufacturer;\r\n  string tracker;\r\n  string trackerProgress;\r\n \r\n  function concat(string _a, string _b) internal pure returns (string) {\r\n        bytes memory bytes_a = bytes(_a);\r\n        bytes memory bytes_b = bytes(_b);\r\n        string memory length_ab = new string(bytes_a.length + bytes_b.length);\r\n        bytes memory bytes_c = bytes(length_ab);\r\n        uint k = 0;\r\n        for (uint i = 0; i < bytes_a.length; i++) bytes_c[k++] = bytes_a[i];\r\n        for (i = 0; i < bytes_b.length; i++) bytes_c[k++] = bytes_b[i];\r\n        return string(bytes_c);\r\n    }\r\n\r\n  function registerProduct(string _nameProduct,string _productionDate, string _manufacturer, string _trackerProgress) public {\r\n     nameProduct = _nameProduct;\r\n     productionDate = _productionDate;\r\n     manufacturer = _manufacturer;\r\n    tracker = concat(tracker,_trackerProgress);\r\n  \r\n  }\r\n\r\n  function getProduct() public constant returns (string,string,string,string){\r\n    return (nameProduct,productionDate,manufacturer,tracker);\r\n  }\r\n\r\n\r\n}\r\n",
  "sourcePath": "C:\\Users\\bruno\\Desktop\\ochainBackend\\OchainContracts Deploys\\contracts\\TrackerProduct.sol",
  "compiler": {
    "name": "solc",
    "version": "0.4.18+commit.9cf6e910.Emscripten.clang"
  },
  "schemaVersion": "1.0.1",
  "updatedAt": "2018-06-17T14:59:49.643Z"
}